:020000040800F2
:100000008813002099010008591D000853180008A2
:10001000DD1A00080506000825260008000000007B
:1000200000000000000000000000000001010008C6
:10003000070600080000000045010008092000082C
:10004000B3010008B3010008B3010008B3010008C0
:10005000B3010008B3010008B3010008B3010008B0
:10006000B3010008B3010008B3010008B3010008A0
:10007000B3010008B3010008B3010008B301000890
:10008000B3010008B3010008B3010008B301000880
:10009000B3010008B3010008B3010008B301000870
:1000A000B3010008CD200008B3010008B301000827
:1000B000B3010008B3010008D9200008B30100080B
:1000C000B3010008B3010008B3010008B301000840
:1000D000B301000819260008B3010008B3010008A5
:1000E000B3010008B3010008B3010008DFF80CD029
:1000F00000F064FA00480047C52600088813002075
:10010000224B19680868B0E8F00F80F30988BFF344
:100110006F8F4FF0000080F311884EF00D0E704786
:100120000000000006480068006880F3088862B696
:1001300061B6BFF34F8FBFF36F8F00DF00BF00BF0B
:1001400008ED00E0EFF30980BFF36F8F0F4B1A68E3
:1001500020E9F00F106008B54FF0500080F31188CF
:10016000BFF34F8FBFF36F8F02F08AFE4FF0000096
:1001700080F31188BDE8084019680868B0E8F00FFE
:1001800080F30988BFF36F8F704700BF68000020BD
:10019000EFF3058070470000064880470648004797
:1001A000FEE7FEE7FEE7FEE7FEE7FEE7FEE7FEE727
:1001B000FEE7FEE785200008ED000008202A04DBAA
:1001C000203A21FA02F00021704721FA02F3D040D0
:1001D000C2F12002914008431946704740EA0103EA
:1001E0009B0703D009E008C9121F08C0042AFAD2ED
:1001F00003E011F8013B00F8013B521EF9D27047B1
:100200002DE9FE4F804681EA0300C00F0C460090A6
:1002100021F0004123F00045B8EB0200A94105D2CE
:100220004046214690461C460B46024623F00040BD
:10023000104347D0270DC7F30A00C3F30A510290B9
:10024000401A019040286BDAC3F3130040F4801B7E
:100250000098924620B10023D2EB030A63EB0B0B0C
:1002600001985946C0F14002504600F029F906466F
:100270000D4650465946019A00F031F910EB08003E
:100280006141002487EA115284EAE7731A4340D09F
:10029000009A62B3019A012A4FEA075215DC001B4B
:1002A00061EB02014FF0004202EA0752CDE9004241
:1002B000001C41F5801132462B4600F031F903B0A5
:1002C000BDE8F08F40462146F9E7001B61EB0201D3
:1002D000001C41F5801300185B412018A2F500179F
:1002E00047EB030140EAD570B6196D4111E06D0886
:1002F0004FEA360645EAC0754FEA0752001B61EB2C
:100300000201001C41F5801149084FEA3000001934
:10031000514132462B4603B0BDE8F04F00F0F1B832
:100320000098012240000023D0EB020263EBE0734F
:10033000009821464FEAE074B8EB000061EB04013D
:10034000E9E783F000435BE781F0004158E72DE9DE
:10035000FE4F81EA030404F0004421F000410094C0
:100360004FF0000B23F0004350EA01045ED052EA44
:1003700003045BD0C3F30A54C1F30A552C44A4F21E
:10038000F3340194A0FB0254C1F3130141F4801132
:10039000C3F3130343F4801301FB024400FB034E39
:1003A000840A970A44EA815447EA8357A4FB076802
:1003B00002958D0A05FB07854FEA932C04FB0C542C
:1003C0002705029D4FEA065847EA1637B5EB0805A0
:1003D0006EEB070C870E920E47EA811742EA8312F2
:1003E000A7FB0201B6EB0B0164EB00042B0D43EA03
:1003F0000C335E1844EB1C50DA465146E7FB020111
:10040000C5F313044FEA0B3343EA14534FEA0432A3
:10041000019C43EA0603A4F10C040294009CCDE97C
:1004200000B400F07DF803B0BDE8F08F0020014675
:10043000F9E770B521F0004303430CD0C1F30A552E
:100440000024D5EB040564EB0403D617AD1AB341C1
:1004500002DB0020014670BD201841EB025170BD47
:100460000EB5C10F80EAE0700844CA07002140F2CF
:1004700033438DE80E000A460B4600F051F803B0F6
:1004800000BD70B5C1F30A5201F000450024C1F36C
:10049000130140F2FF3341F480119A4201DA002047
:1004A00070BD40F233439A42A2F2334203DC52421F
:1004B000FFF784FE00E090402C43F1D0404270BD35
:1004C000202A04DB203A00FA02F100207047914014
:1004D000C2F1200320FA03F3194390407047202A09
:1004E00006DBCB17203A41FA02F043EAE07306E05C
:1004F00041FA02F3D040C2F120029140084319466C
:10050000704710B5141E73F1000408DA401C41F165
:10051000000192185B411A4301D120F0010010BD87
:100520002DE9F04D92469B4611B1B1FA81F202E0FD
:10053000B0FA80F220329046FFF7C2FF04460F4621
:1005400040EA0A0041EA0B0153465A46084313D0D9
:10055000114653EA010019D0C8F140025046FFF796
:100560002DFE05460E46504659464246FFF7A8FF67
:10057000084305D0012004E020463946BDE8F08D4F
:100580000020054346EAE0762C4337430A9863058A
:10059000E40AA0EB08000022FD0A44EA47540A30AE
:1005A00002D500200146E9E7010510196941DDE99E
:1005B000084500196941BDE8F04DA2E7064C074D1A
:1005C00006E0E06840F0010394E807009847103423
:1005D000AC42F6D3FFF78EFDF43100081432000868
:1005E00007494FF47A700860091D40F27260086094
:1005F000091D4FF4966008604010091D086070479F
:1006000034040040FEE7704710B590F82110002434
:10061000022903D00421816301243DE001680A68B6
:1006200022F00E020A6001680A6822F001020A60E4
:100630001A4A0168914201D1012121E0174A14327E
:10064000914201D110211BE0144A2832914201D17C
:10065000891515E0114A3C32914201D189140FE00D
:100660000E4A5032914202D14FF4803108E00B4AD9
:100670006432914202D14FF4801101E04FF0807159
:10068000064A083A5160012180F82110002180F8C3
:100690002010416B01B18847204610BD0800024080
:1006A0002DE9F84FDFF890A100220AF1040B14465F
:1006B00001274FF00F090BF1040E00BF0B6807FA7A
:1006C00004F52B40AB4274D1DFF870C14E68A6EB45
:1006D0000C0866452BD00DDC032E34D005DC36B378
:1006E000012E19D0022E2FD11BE0112E16D0122E62
:1006F0002AD119E0B8F5881F19D006DCB8F5803F7B
:1007000015D0B8F5801F1FD111E0B8F5001F0ED02D
:10071000B8F5041F18D10AE0CA6815E0CA68121DAE
:1007200012E0CA6808320FE0CA680C320CE08A682E
:100730002AB1012A4FF0080203D0456104E00422E7
:1007400002E0056100E00022FF2B01D8064601E02F
:1007500000F104064FEA840501D9A5F12005D6F879
:1007600000C009FA05F82CEA080C02FA05F54CEA73
:10077000050CC6F800C04D68ED0057D5304DAE6988
:1007800046F00106AE61AD6924F0030605F00105EF
:1007900000952C4D06EB050CDCF80850A6074FEA37
:1007A000167809FA08F6B543274EB04202D1002662
:1007B00010E03BE0254EB04201D101260AE0244E74
:1007C000B04201D1022605E0224EB04201D10326FB
:1007D00000E0042606FA08F62E43CCF808604D68BF
:1007E000DAF80060ED03554601D51E4300E09E4354
:1007F0002E604D68DBF80060AD035D4601D51E43F9
:1008000000E09E432E604D68DEF80060ED02754604
:1008100001D51E4300E09E432E604D68AD020E4D93
:100820002E6801D51E4300E09E432E60641C102CF0
:10083000FFF444AFBDE8F88F000401400000111040
:10084000001002400000014000080140000C01407F
:1008500000100140001401400C0401400AB1016184
:1008600070470904FBE700000148806870470000FA
:10087000340000200248816802781144816070478A
:1008800034000020074810B5016841F010010160F4
:10089000032000F0B7F8002000F006F800F03EF862
:1008A000002010BD0020024000B5014687B00022A4
:1008B0001E2000F087F81E2000F078F81348C16968
:1008C00041F00401C161C06905A900F0040006906F
:1008D000684600F053F900F077F90D494000B0FB8D
:1008E000F1F10D480B4A491E0260416040F2E732C7
:1008F0000021C0E90321816000F088FB10B10120D4
:1009000007B000BD044800F0E0FBF9E7001002402A
:1009100040420F000008004058020020214808B55E
:10092000816941F001018161816901F0010100915A
:10093000C16941F08051C161C06900F080500090F0
:10094000032000F05FF8002211466FF00B0000F06A
:1009500039F8002211466FF00A0000F033F8002247
:1009600011466FF0090000F02DF800221146501FCB
:1009700000F028F800221146101F00F023F8002292
:100980000F21901E00F01EF800220F21501E00F0D3
:1009900019F80548416821F0E06141F000714160BB
:1009A00008BD0000001002400000014000F01F02DE
:1009B000012191404009800000F1E020C0F80011C1
:1009C00070470000F0B40E4B1B680C46C3F30223C3
:1009D000C3F10705042D00D90425191D072901D2EB
:1009E000002300E0DB1E012606FA05F1491E214026
:1009F00099409E40761E16403143F0BC01F0ADB9DF
:100A00000CED00E0064900F0070208684FF6FF030E
:100A1000184040EA0220034A104308607047000073
:100A20000CED00E00000FA052DE9F047DFF83C810D
:100A300005460E46D8F8000000F00700B0420CD280
:100A4000D8F8001021F007013143C8F80010D8F899
:100A5000000000F00700B04263D12878444C8007C2
:100A600005D56068A96820F0F00008436060287828
:100A7000C00745D06868012816D02168022816D022
:100A8000890700294DDA616821F0030101436160A3
:100A9000FFF7EAFE6968074641F2883001290FD066
:100AA0000229814619D027E021688903E9E78901F5
:100AB000E7E700BFFFF7D8FEC11B494501D918E0A1
:100AC00081466068C0F381000128F3D118E000BFBF
:100AD000FFF7CAFEC11B49450BD86068C0F381000F
:100AE0000228F5D10CE000BFFFF7BEFEC11B49454F
:100AF00002D90320BDE8F087606810F00C0FF3D135
:100B0000D8F80010404601F00701B1420BD9016846
:100B100021F0070131430160006800F00700B04296
:100B200001D00120E6E72878400705D56068E9682C
:100B300020F4E060084360602878000706D560680C
:100B4000296920F4605040EAC100606000F05CF860
:100B50006168084AC1F30311515CC8400649086046
:100B60000020FFF7A1FE0020C4E7000000200240A3
:100B700000100240C4310008400000200F22026033
:100B80000C4A536803F003034360536803F0F00317
:100B90008360536803F4E063C36052684FF4E0631A
:100BA00003EAD20202610448006800F0070008600E
:100BB0007047000000100240002002400148006819
:100BC000704700004000002004480549006849685B
:100BD000044AC1F30221515CC84070474000002024
:100BE00000100240D43100080448054900684968F3
:100BF000044AC1F3C221515CC84070474000002044
:100C000000100240D431000812A185B00FC98DE850
:100C10000F0014A0144A006804905168134801F0B2
:100C20000C03042B10D0082B0ED1C1F38343C9034E
:100C30001DF803000AD5516804AAC1F34041515C74
:100C40000A4A5043B0FBF1F005B0704708494843E9
:100C5000FAE7000002030405060708090A0B0C0D59
:100C60000E0F1010010200000010024000127A0066
:100C700000093D002DE9F84F04460078B94DC00742
:100C800048D06868C0F38100012807D06868C0F3C5
:100C90008100022809D16868C00306D5286880034E
:100CA00038D5606800286FD034E06068B0F5803FC8
:100CB0000BD010B1B0F5A02F11D0286820F48030EF
:100CC0002860286820F4802002E0286840F4803002
:100CD0002860606888B1FFF7C7FD064609E028680C
:100CE00040F480202860F0E7FFF7BEFD801B6428F9
:100CF00075D828688003F7D50CE0FFF7B5FD0646E8
:100D000005E000BFFFF7B0FD801B6428F0D828681D
:100D10008003F7D42078944E80074FF001094FF0FC
:100D200000083BD5686810F00C0F07D06868C0F366
:100D30008100022809D16868C00306D428688007AA
:100D400014D5206901281FD110E02069B0B1C6F880
:100D50000090FFF789FD074605E000BFFFF784FD1F
:100D6000C01B0228C4D828688007F7D528686169A5
:100D700020F0F80040EAC10028600FE0C6F80080CB
:100D8000FFF772FD074606E0E9E000BFFFF76CFDE4
:100D9000C01B022823D828688007F7D420780007D2
:100DA0002CD57248A169D9B1C0F80090FFF75CFD5D
:100DB000074604E0FFF758FDC01B02280FD8686AF9
:100DC0008007F7D56A484FF4FA510068B0FBF1F09C
:100DD000009000BF0098411E0091FAD20EE080E022
:100DE000C0F80080FFF740FD074604E0FFF73CFD38
:100DF000C01B022875D8686A8007F7D4207840079E
:100E000060D5E8690027C00008D4E86940F0805048
:100E1000E861E869012700F08050009055480168BA
:100E2000C90513D40168834641F480710160FFF75E
:100E30001BFD824606E000BFFFF716FDA0EB0A008F
:100E400064284ED8DBF80000C005F5D5E06801281D
:100E50000AD008B1052813D0286A20F001002862C2
:100E6000286A20F0040002E0286A40F001002862AD
:100E7000E06841F2883B98B1FFF7F6FC82460BE050
:100E8000286A40F004002862EEE700BFFFF7ECFCA0
:100E9000A0EB0A0159455AD8286A8007F6D50CE01C
:100EA000FFF7E2FC824605E0FFF7DEFCA0EB0A015B
:100EB00059454CD8286A8007F6D41FB1E86920F05C
:100EC0008050E861E06988B36968C1F38101022953
:100ED00045D00228C6F8608004D0FFF7C5FC044660
:100EE00038E034E0FFF7C0FC074604E0FFF7BCFC45
:100EF000C01B02282BD828688001F7D4206AB0F5DF
:100F0000803F05D16868A16820F40030084368601C
:100F1000D4E908010843696821F474110843686042
:100F2000C6F86090FFF7A0FC044606E015E000BF9D
:100F3000FFF79AFC001B022809D828688001F7D522
:100F40000BE000BFFFF790FC001B022802D9032032
:100F5000BDE8F88F28688001F4D40020F8E701206C
:100F6000F6E70000001002400000424280044242C6
:100F700040000020007000404FF0E0210428086984
:100F800003D020F004000861704740F00400FAE745
:100F900010B5401EB0F1807F01D3012010BD4FF08D
:100FA000E02460610F21601700F0D7FE0020A061EF
:100FB00007202061002010BD7047704730B590F8C1
:100FC0003C20012A20D0012280F83C20022380F816
:100FD0003D3003685C6824F070045C6003685C6802
:100FE0000D682C435C6003689C6824F080049C605E
:100FF00003689C6849680C439C6080F83D20002190
:1010000080F83C10084630BD022030BD10B5040009
:1010100003D094F83D0010B107E0012010BD00207E
:1010200084F83C00204600F00DF8022084F83D00D2
:10103000211D206801F056F8012084F83D000020B1
:1010400010BD000008B5174A01681748914211D138
:10105000816941F4006181618069002200F40060CF
:10106000009005211920FFF7ADFCBDE808401920CC
:10107000FFF79CBCB1F1804F0BD00C4A914207D1D5
:10108000C16941F00201C161C06900F00200009035
:1010900008BDC16941F00101C161C06900F00100F2
:1010A000F5E70000002C0140001002400004004061
:1010B000022180F83D1001680A6842F001020A60CE
:1010C000012180F83D10002070470168CA6842F095
:1010D0000102CA600068016841F00101016000205E
:1010E000704770B5044690F83C00012817D00125E0
:1010F00084F83C50022084F83D002068826822F089
:10110000770222F47F4282600868502837D00DDCD5
:10111000202859D005DC88B3102841D151E00220A5
:1011200070BD302853D040283AD13FE060282ED0FF
:1011300070280BD0B0F5805F03D0B0F5005F2FD1E1
:1011400010E02068816821F0070115E0CB68D1E943
:101150000121206801F007F82168886840F07700D5
:1011600088601DE0CB68D1E90121206800F0FBFF19
:101170002068816841F48041816011E01EE0CA6806
:101180004968206801F0A4F85021206806E0CA6888
:101190004968206801F0ADF86021206800F0EDFF9B
:1011A00084F83D50002084F83C0070BDCA6849684E
:1011B000206801F08DF840212068EFE700212068C9
:1011C000ECE710212068E9E720212068E6E73021DC
:1011D0002068E3E7704770B50446006801694FF086
:1011E0000005C943890715D4C168C943890711D4CB
:1011F000E91E016101202077206880698007204670
:1012000002D0FFF7E7FF04E000F0C0F8204600F04E
:1012100042F9257720680169C943490717D4C16895
:10122000C943490713D46FF00401016102202077FC
:101230002068806910F4407F204602D0FFF7CAFF83
:1012400004E000F0A3F8204600F025F92577206897
:101250000169C943090716D4C168C943090712D4F3
:101260006FF008010161042020772068C0698007C1
:10127000204602D0FFF7AEFF04E000F087F82046DA
:1012800000F009F9257720680169C943C90617D418
:10129000C168C943C90613D46FF010010161082069
:1012A00020772068C06910F4407F204602D0FFF705
:1012B00091FF04E000F06AF8204600F0ECF8257792
:1012C00020680169C943C90708D1C168C943C90772
:1012D00004D1891E0161204600F0F6F820680169FA
:1012E000C943090609D4C168C943090605D46FF08A
:1012F000800101612046FFF75FFE20680169C94354
:10130000490609D4C168C943490605D46FF04001B4
:101310000161204600F0F2F820680169C94389069E
:101320000BD4C168C943890607D46FF0200101615D
:101330002046BDE87040FFF740BE70BD7FB5016834
:10134000022403250E48B1F1804F12D00D4A91427C
:101350000ED1C021CDE9001403956946FFF7A0F92D
:10136000CDE9005469460848CDF80C50FFF798F9CC
:101370007FBD0F21CDE9001403956946F6E7000013
:101380000008014000040040000C0140704770B5A7
:10139000044690F83C000D4601280DD0012684F843
:1013A0003C60022084F83D0042B1042A18D0082A8B
:1013B0002AD00C2A4DD139E0022070BD206800F0FF
:1013C000E5FE2068816941F008018161206881693A
:1013D00021F004018161206881692A69114311E0CB
:1013E000206800F0FBFE2068816941F400618161A2
:1013F0002068816921F480618161206881692A699E
:1014000041EA0221816124E0206800F013FF206896
:10141000C16941F00801C1612068C16921F004017E
:10142000C1612068C1692A69114311E0206800F098
:101430002DFF2068C16941F40061C1612068C16964
:1014400021F48061C1612068C1692A6941EA0221F1
:10145000C16184F83D60002084F83C0070BD10B587
:10146000040003D094F83D0010B107E0012010BD46
:10147000002084F83C00204600F00CF8022084F89C
:101480003D00211D206800F02DFE012084F83D0064
:10149000002010BD7047704710B504460068012257
:1014A00000F056FE07492068884203D1416C41F4A0
:1014B000004141642068016841F0010101600020A1
:1014C00010BD0000002C014010B504460068094919
:1014D000884205D100F068FB00F028FB00F006FD13
:1014E00005492068884203D1BDE81040FFF7C2B922
:1014F00010BD0000002C01400008004070477047FC
:1015000070B5026804461068D168536910F00F0F77
:1015100050D003F0010501F4907635435DD0C20749
:1015200005D0CA0503D5E26B42F00102E26342072F
:1015300005D5DA0703D0E26B42F00202E2638207CC
:1015400005D5DA0703D0E26B42F00402E26302073A
:1015500005D5DA0703D0E26B42F00802E263E26BE2
:10156000002A33D0800604D5880602D5204600F034
:10157000EBFE20684069E16BC0F38010090700D4DE
:1015800028B3204600F0D2FE2068416949061AD5EA
:10159000416921F040014161606BA0B11B49416389
:1015A000606BFFF731F8002810D0606B416BBDE82D
:1015B00070400847830610D58B060ED52046BDE83F
:1015C000704000F0C1BE2046FFF799FF70BD204675
:1015D000FFF795FF0020E06370BD030606D50B06FC
:1015E00004D52046BDE8704000F0B2BF4006F3D5F8
:1015F0004806F1D5D168204621F04001D160202174
:1016000084F8391000F024F970BD00001D23000893
:1016100070B5040004D094F83900002510B106E03C
:10162000012070BD84F83850204600F023F82420B3
:1016300084F839002068C16821F40051C160204657
:1016400000F0CEFE2068016921F49041016120681C
:10165000416921F02A0141612068C16841F40051CB
:10166000C160E563202084F8390084F83A00002046
:1016700070BD000010B50068154986B0884225D1BC
:101680001448816941F4804181618069124C00F401
:10169000804004904FF400700090022001900320DD
:1016A000039069462046FEF7FBFF00212015CDE997
:1016B0000001029169462046FEF7F2FF0022052153
:1016C0002520FFF77FF92520FFF770F906B010BD40
:1016D0000038014000100240000801402DE9F843A5
:1016E000044690F83A00994616460D4620284FD1F8
:1016F00095B18EB194F83800012849D0012084F8C2
:1017000038000027E763222084F83A00FFF7ACF89E
:10171000A6858046E68531E00120BDE8F883E08DAE
:10172000401EE085A0684346B0F5805F4FF00002A0
:101730004FF020012046CDF8009004D000F039FF92
:1017400098B10320E9E700F034FF0028F9D12069BF
:1017500000282068406803D0C1B225F8011B0DE0C5
:10176000C0F3080125F8021B08E020690028206862
:10177000406801D000F07F0005F8010BE08D0028E3
:10178000CDD1202084F83A0084F838700020C4E7D6
:101790000220C2E770472DE9F843044690F839006B
:1017A0001F4616460D46202850D1A5B19EB194F88B
:1017B000380001284AD0012084F838004FF0000892
:1017C000C4F83C80212084F83900FFF74DF8A68446
:1017D0008146E68426E00120BDE8F883E08C401EC7
:1017E000E084A0684B46B0F5805F4FF000024FF0F8
:1017F00080012046009703D000F0DBFEE8B90DE041
:1018000000F0D7FEC8B928882168C0F308004860F6
:10181000206908B16D1C05E0AD1C03E0216815F8D6
:10182000010B4860E08C0028D8D14B4600224021B3
:101830002046009700F0BDFE08B10320CCE7202031
:1018400084F8390084F838800020C5E70220C3E717
:101850007047FEE72DE9F0472D4886B0816941F0D9
:1018600010018161816901F010010491816941F0E9
:1018700020018161816901F020010491816941F0B9
:1018800004018161816901F004010491816941F0E1
:10189000080181618069DFF87C8000F008004FF466
:1018A00000540490002221464046FEF7D7FFDFF89F
:1018B000689041F61006002231464846FEF7CEFFFA
:1018C000DFF858A04CF6C077002239465046FEF7A4
:1018D000C5FF00250320CDE902500094012469468C
:1018E00001944046FEF7DCFECDE900640226CDE916
:1018F000025669464846FEF7D3FE01AA009782E8E1
:10190000700069465046FEF7CBFE06B0BDE8F08792
:10191000001002400010014000080140000C01408E
:1019200010B5144886B01249016047210024C0E96F
:10193000011442F20F71C0E9031444618461FFF79E
:1019400065FB00B1FEE74FF48050009069460948FE
:10195000FFF7C7FB00B1FEE7049404A9054805940E
:10196000FFF72CFB002800D0FEE706B010BD0000FA
:10197000002C01405801002010B528488EB04FF0CF
:101980008041016047210024C0E9011444F61F6131
:10199000C0E903148461FFF739FB00B1FEE74FF49F
:1019A0008050079007A91D48FFF79BFB00B1FEE799
:1019B0001A48FFF754FD00B1FEE70B940BA9174836
:1019C0000C94FFF7FBFA00B1FEE76020009040F2B4
:1019D000DC50CDE901040022694610480494FFF769
:1019E000D6FC00B1FEE7042269460C48FFF7CFFCA5
:1019F00000B1FEE7082269460848FFF7C8FC00B1BD
:101A0000FEE70C2269460548FFF7C1FC00B1FEE77E
:101A10000248FFF793FC0EB010BD000098010020B3
:101A200010B52D488EB02B49016047210024C0E934
:101A3000011444F61F61C0E903148461FFF7E6FA5C
:101A400000B1FEE74FF48050079007A92248FFF746
:101A500048FB00B1FEE72048FFF701FD00B1FEE7BB
:101A60000B940BA91C480C94FFF7A8FA00B1FEE7F1
:101A7000602000904FF49660CDE901040022694691
:101A800015480494FFF783FC00B1FEE740F6980088
:101A90000190042269461048FFF779FC00B1FEE787
:101AA00040F226200190082269460B48FFF76FFCA0
:101AB00000B1FEE74FF4167001900C22694606480B
:101AC000FFF765FC00B1FEE70348FFF737FC0EB0F7
:101AD00010BD000000040040D8010020FEE7000017
:101AE0000E480D49104A0160091D4160091D8160C1
:101AF000091DC16010300A490160091D4160091DBE
:101B00008160091DC160103006490160C0E9011201
:101B1000C16010201060704734000040A800002011
:101B200034040040100C014010080140FCB51B4873
:101B30001B4D0289C1884089531A1C181B1A114475
:101B40000A1AADF804300844ADF80040154BADF862
:101B50000600ADF8022000206946A3F12004A5F19B
:101B6000100600BF31F91020002A07DA53F820C010
:101B700055F820705242CCF8007006E053F82070FF
:101B800056F820203A6031F8102054F82070401C9C
:101B900000B23A800428E5DBFCBD00000000002014
:101BA0008C310008C80000202DE9F047404C4FF070
:101BB000000804F11C06217840F24C454FF41679D8
:101BC000A1B1022912D0A4F806803A4AA4F80880EC
:101BD000A4F80A80C2F81C8020320329C2F81C80B5
:101BE00063D0012900D1F580BDE8F0873149B4F90F
:101BF0001000203900F026FD4FF4FA576081C7F13C
:101C0000000AB84201DD678103E0504501DAA4F81B
:101C10000AA06189E08908446081207802280FD0F9
:101C2000244900BFB4F9120000F00CFD2081207897
:101C300048B1F580B4F90800B84231DD2781D3E717
:101C40001C492031EEE7F088A84225D8B0464E4620
:101C5000B0421ED9608A174932304042403100B24A
:101C600000F0F0FCB8F80620104400B2A84201DDF4
:101C7000284602E0B04200DA3046A8F80600618A41
:101C80000029D7D0C0F5167000EBC00040002081BD
:101C9000D0E7A8F80690CDE7F580A4F80880C9E75A
:101CA0005045A1DAA4F808A09EE7A6F806909BE7A5
:101CB00000000020F80000201C491B4A0020C1E958
:101CC00000021C4A1A48C1E902021B4A0020C1E96D
:101CD00004028861C861194B2031194AC1E9000327
:101CE000184BC1E90223184B0861C1E90530C861EE
:101CF000164B20310022C1E90023154B0C4AC1E9E3
:101D0000022300230B61104AC1E90520C861114B71
:101D100020310B4AC1E900230022C1E902220A61F5
:101D2000C1E90520C861704700002040D8000020AC
:101D3000B81E85EB51B88E3F00003E400080414008
:101D40009A9999999999B93F000044400000374009
:101D500051B89E3F9999A93F70470907090E00287D
:101D600006DA00F00F0000F1E02080F8141D704743
:101D700000F1E02080F80014704700002DE9F047E2
:101D8000574C20786178884207D06423012221468D
:101D90005448FFF700FD207860705149A0230822C5
:101DA00024315048FFF79AFC4D4A4FF0FF39143266
:101DB00040F24C43002502F1080130B1E0780028E0
:101DC00074D0B4F90E0080B35EE0E5810120E070CC
:101DD000C988994201D01420D08026780EB1022EF5
:101DE00019D13F4840F27F272430B0F90020531E1C
:101DF000BB4210D28EB1C2F5A0722282C088A0F57B
:101E0000E1706082B4F9100000F16402C92A0DD3B8
:101E1000022E0BD0A570BDE8F087C2F5C2722282F7
:101E2000B0F90200C0F58B70EBE72AE0B4F912704C
:101E300017F1140FEEDB142F01DD022EEAD1B1F5FC
:101E4000167F01D0022EE6D1A178491CC9B2A1703B
:101E50008846FEF705FB4A46FEF7EBFAFEF711FB54
:101E600020823846FEF7FCFA4A46FEF7E2FAFEF711
:101E700008FB6082B8F1050FCDD3A570761C2670E3
:101E8000C9E7A6897642A681B4F90C60B04202DAAD
:101E900000F1FA0002E002DDA0F1FA00E081124850
:101EA00000F12006C561F5618561B5614FF0020062
:101EB000D080CB80B4F91000FEF7D2FA4D464A46E6
:101EC000FEF7B7FAFEF7DDFA2082B4F91200FEF74A
:101ED000C7FA2A46FEF7ADFAFEF7D3FA60829AE710
:101EE0000000002018020020F80000202DE9F04337
:101EF0003A4B0021187900286BD101201871384A1B
:101F000003F1140903F11C0052F8215030F811C0FC
:101F10002E88ACEB060427B239F81140BC4201DA36
:101F2000344404E0C4F10008B84502DD341B2C80C1
:101F300001E0A5F800C0491CC9B20429E4D319780E
:101F40004FF4966640F272654FF47A74012902D01C
:101F5000032923D03DE011680F8840F2D661A742E3
:101F600007D1926812888A4201D1022021E00180C3
:101F70002FE040F6DE0C8F4208D191680988B1420B
:101F800027D1A0F800C040F27E4117E0674520D17C
:101F90008180926812888A4219D01AE0116840F252
:101FA0006C770988A1420BD191680988B14202D1AE
:101FB000002018700DE0078040F2DC51418008E0FD
:101FC000B94206D1868091680988B14201D1048066
:101FD00045801879401E1871BDE8F083000000208C
:101FE000B8000020074C4FF400564FF4FA75670410
:101FF0002661284600F0ECFB2761284600F0E8FB4C
:10200000F6E700000010014010B500F0E3FF0128E2
:1020100003D0BDE8104000F09BBF10BD30B58FB0BD
:1020200001210804CDE90010002402940225049146
:10203000CDE907504FF4E01009906846FEF71AFE0C
:1020400000B1FEE70F20CDE90A054FF48060CDE92D
:102050000C4002210AA80E94FEF7E6FC00B1FEE750
:10206000FEF7ACFD4FF47A71B0FBF1F0FEF790FF94
:102070000420FEF781FF00220F21501EFEF7A2FC74
:102080000FB030BD0D48016841F0010101604168A9
:102090000B4A1140416001680A4A11400160016821
:1020A00021F480210160416821F4FE0141604FF478
:1020B0001F0181600449C00308607047001002409E
:1020C0000000FFF8FFFFF6FE08ED00E00148FFF713
:1020D00082B80000580100200148FFF77CB80000DA
:1020E00058020020F0B50268164B174C174D4FF000
:1020F0008047984205D0B84203D0A04201D0A84200
:1021000003D122F070064A683243984205D0B842A3
:1021100003D0A04201D0A84203D122F44074CA687F
:10212000224322F080044A69224302608A68C26224
:102130000A688262984201D1096901630121416103
:10214000F0BD0000002C01400004004000080040E9
:1021500010B50123046A8B409C430462036A8A40E1
:102160001343036210BD10B5846842EA032224F4CD
:102170007F440A432243826010BD826822F07002CD
:102180000A4342F0070181607047000030B5026ADF
:1021900022F001020262026A4368846924F0730536
:1021A0000C682C4322F002058A682A430A4DA84293
:1021B0000BD122F00805CA6823F440732A434D6905
:1021C00022F004021D438B692B43436084614968FC
:1021D0004163026230BD0000002C014030B5026A4C
:1021E00022F010020262026A436884690D6824F4D6
:1021F000E64444EA05248D6822F0200242EA0512F2
:102200000B4DA8420ED1CD6822F0800242EA0512A1
:102210004D6923F4406343EA85038D6922F040024F
:1022200043EA85034360846149688163026230BD8B
:10223000002C014030B5026A22F480720262036A07
:102240004268C46923F4007324F073050C682C43BE
:102250008D6843EA05230C4DA8420ED1CD6823F4C6
:10226000006343EA05234D6922F4405242EA051215
:102270008D6923F4806342EA05124260C4614968B3
:10228000C163036230BD0000002C014030B5026A1A
:1022900022F480520262046A4268C3690D6823F422
:1022A000E64343EA05238D6824F4005444EA0534E8
:1022B000064DA84204D14D6922F4804242EA8512BB
:1022C0004260C36149680164046230BD002C014072
:1022D00010B5036A046A24F001040462846924F0DE
:1022E000F00444EA021423F00A020A438461026201
:1022F00010BD10B5036A23F0100303628369046AFA
:1023000023F4704343EA023224F0A00343EA0111AC
:102310008261016210BDFFF731FDFCE710B5406A34
:102320000021C185C184FFF7EAF810BD0168CA68C1
:1023300022F49072CA6001684A6922F001024A617F
:10234000202180F83A10704710B590F83A102229F1
:1023500001D0022010BD8168B1F5805F11D0016904
:10236000002901681FD0496801F07F03816A4A1C77
:1023700082620B70C18D491E0904090CC18518D0F9
:102380002BE00269816A002A0268526805D0D2B245
:102390000A80816A491C8162ECE7C2F308020A8064
:1023A000816A891CF7E74A68816A4B1C83620A705C
:1023B000E0E70168CA6822F02002CA600168CA68C2
:1023C00022F48072CA6001684A6922F001024A61FF
:1023D000202180F83A10FFF7DDF9002010BD000041
:1023E0002DE9F041044600680169E26821F440519A
:1023F000114301612169A0680843616908432168AC
:10240000CA6841F20C639A430243CA60206841697A
:10241000A26921F44071114341614C49206864254F
:10242000322688423CD1FEF7DFFB00EBC00101EB16
:10243000001061688900B0FBF1F7FEF7D5FB00EBF7
:10244000C00101EB00106168B0468900B0FBF1F0FB
:10245000B0FBF5F06FF01801484307EB800106EB85
:102460000110B0FBF5F000F0F006FEF7BDFB00EB4D
:10247000C00101EB001061688900B0FBF1F0B0FB16
:10248000F5F006EB0016FEF7AFFB00EBC00101EB29
:10249000001061688900B0FBF1F7FEF7A5FB3BE097
:1024A000FEF792FB00EBC00101EB001061688900B0
:1024B000B0FBF1F7FEF788FB00EBC00101EB001069
:1024C0006168B0468900B0FBF1F0B0FBF5F06FF049
:1024D0001801484307EB800106EB0110B0FBF5F053
:1024E00000F0F006FEF770FB00EBC00101EB0010FE
:1024F00061688900B0FBF1F0B0FBF5F006EB001667
:10250000FEF762FB00EBC00101EB0010616889007F
:10251000B0FBF1F7FEF758FB00EBC00101EB001038
:1025200061688900B0FBF1F0B0FBF5F06FF01801C5
:10253000484307EB800108EB0110B0FBF5F0216880
:1025400000F00F0030448860BDE8F08100380140A1
:1025500090F83910212901D0022070478168B1F527
:10256000805F016A0BD04A1C0262026809785160E0
:10257000C18C491E0904090CC1840ED017E00988DA
:102580000268C1F30801516001690029016A02D0A3
:10259000491C0162ECE7891CFBE70168CA6822F06C
:1025A0008002CA600068C16841F04001C16000203B
:1025B00070472DE9F041984617460E460446069DA1
:1025C0001DE0681C1BD02DB1FEF74EF9A0EB0800F2
:1025D000A84214D92068C16821F4D071C160206874
:1025E000416921F001014161202084F8390084F81B
:1025F0003A00002084F838000320BDE8F08120680C
:10260000006836EA000004D00020B842D9D000208B
:10261000F3E70120F9E700000148FEF771BF000071
:1026200018020020FEE702E008C8121F08C1002AB5
:10263000FAD170477047002001E001C1121F002A43
:10264000FBD170472DE9F0410C468046FDF708FFAD
:10265000D4E900230D460646FDF779FEFDF711FF8C
:10266000D4E9022307B230462946FDF770FE05463D
:102670000E46E069FDF7F4FE2A463346FDF7C0FD3D
:10268000FDF7FFFEE061B84200DDE761A08BA169C4
:10269000384406B2A1EB0800FDF7E2FED4E90423BA
:1026A000FDF755FE07460D463046FDF7D9FE3A4682
:1026B0002B46FDF7A5FDFDF7E4FE00B2C4F8188037
:1026C000BDE8F0818AB0FEF7DDF8FFF7A7FCFDF763
:1026D00087FFFFF7BFF8FFF74FF9FFF7A1F936487B
:1026E00034490C2201604FF4E131416000218160E6
:1026F000C160C0E904128161C161FEF789FF00B1C8
:10270000FEE7FFF70DF9FDF76BFFFFF7E9F9FFF7BC
:10271000D3FA2948C038FEF7CBFC27488038FEF7AB
:10272000C7FC25484038FEF7C3FC2348C038FEF7F5
:10273000CCFC214800218038FEF7AEFE1E48042163
:102740008038FEF7A9FE1C4808218038FEF7A4FE59
:1027500019480C218038FEF79FFE174800214038A9
:10276000FEF79AFE144804214038FEF795FE124801
:1027700008214038FEF790FE0F480C214038FEF744
:102780008BFE14220D496846FDF728FD002168469E
:1027900000F02AF80A4C094914222060143105A8D7
:1027A000FDF71CFD002105A800F01EF8606000F098
:1027B00016F8FEE700380140180200209C3100089E
:1027C0002C00002001460020842900D0C81C70473E
:1027D00010B500B9012000F0F1FA002010BD10B5CD
:1027E00000F012FB002010BD3EB504460D46B0F9C6
:1027F0000800FFF7E7FF02A9CDE90001208A2B4678
:1028000082B2D4E9001000F0B9FB012801D0002009
:102810003EBD02983EBD00002DE9F041184C0F4628
:102820000546E6682068001D00F012FA38B92068F5
:1028300090F82C1001208840216981432161681C97
:1028400007D137B12168BDE8F0410E48091D00F0FD
:1028500037BA20683544B5424560216805D2A06B7F
:10286000BDE8F041091D00F013BA606B091D00F0CE
:102870000FFAA06A854200D2A562BDE8F08100008F
:1028800068000020740F00202DE9F041054600F09B
:1028900023FA2E4CA068401CA06020682C4F10B179
:1028A000606940B32DE02560A068012829D1002689
:1028B00006EB860007EB800000F0DCF9761C072EA3
:1028C000F6D323488C3000F0D5F92148A03000F031
:1028D000D1F91F48B43000F0CDF91D48C83000F0E0
:1028E000C9F91B48DC3000F0C5F919488C30606329
:1028F0001430A06305E02068E96AC06A884200D805
:102900002560606A401C6062E96A01202269884093
:102910001043206101EB810007EB8000291D00F0CE
:10292000CFF900F0F9F9606900280CD02068E96A55
:10293000C06A884207D207494FF080500860BFF351
:102940004F8FBFF36F8FBDE8F0810000680000205B
:10295000980E002004ED00E070B5114E114C17E008
:1029600000F086FA3068B8B100F0A6FB00F0B4F9C8
:10297000F068C568281D00F06BF9A068401EA060D3
:102980006068401E606000F0C7F9284600F00CF84F
:1029900060680028E4D170BD00F08EFBF8E700000D
:1029A000600F00206800002010B50446006B00F0A6
:1029B000C7F92046BDE8104000F0C2B910484FF4F6
:1029C0004061420706D0C01D0D4920F00700411AA2
:1029D000C1F540610B4A00230144C2E900030839F4
:1029E000103A21F0070111604B600B600B1AC0E92F
:1029F000001393604FF000405360D06070470000B8
:102A00009802002054000020074C4FF08056074DDC
:102A1000FFF7A2FF20680128FAD92E60BFF34F8F7D
:102A2000BFF36F8FF4E70000980E002004ED00E084
:102A30002DE9F0479A46DDE9098481466FF00303EA
:102A4000206B03EB82021044089D20F007067007FC
:102A500007D0502080F31188BFF34F8FBFF36F8FE3
:102A6000FEE723180A5C83F834200A5C12B1401C8C
:102A70001028F6D3002784F84370072D00D30625CD
:102A8000E562C4E91157201D00F0FFF804F11800B9
:102A900000F0FBF82461C5F107006462A061E764FF
:102AA00084F8507052464946304600F0BFF8206026
:102AB000B8F1000F01D0C8F80040BDE8F087000071
:102AC00030B5114900E011460A688242FBD34B68D9
:102AD0005C18844203D14068184448600846436843
:102AE0001C18944209D1084C103C2468A24209D019
:102AF00052681A4442600A6812680260814200D03B
:102B0000086030BD0460F9E7540000200648416BBE
:102B1000096829B1416BC968C96849688162704711
:102B20004FF0FF31FAE700006800002008484068D5
:102B3000401C4FF0500080F3118804D0BFF34F8F3A
:102B4000BFF36F8FFEE7BFF34F8FBFF36F8FFEE7CB
:102B50005C0000202DE9F0410546002700F088F9CF
:102B6000314E306808B9FFF729FFF06805424BD1B4
:102B7000C5B3083568070ED005F00700C0F108009E
:102B80000544680707D0502080F31188BFF34F8FAA
:102B9000BFF36F8FFEE72DB37068854234D82248AB
:102BA000103001460C6801E020460C466168A942DD
:102BB00002D221680029F7D131688C4224D00768FD
:102BC0002168016060680837411B10290FD960191E
:102BD000420708D0502080F31188BFF34F8FBFF316
:102BE0006F8FFEE710E041606560FFF769FF616885
:102BF0007068401A7060B268904200D2B060F068AD
:102C000001430020C4E9000100F056FA780707D01C
:102C1000502080F31188BFF34F8FBFF36F8FFEE713
:102C20003846BDE8F08100004400002010B5031FC5
:102C30004FF080741C601B1F21F001011960191FE7
:102C4000024B0B60143940380A6010BD2D2B000870
:102C5000D0E9013201699A60D0E901235A604A68DB
:102C6000824201D182684A60002202610868401EE7
:102C70000860704700F108014FF0FF32C0E901120F
:102C8000C16001610021016070470021016170474E
:102C900030B50B685A1C02D000F1080202E002694C
:102CA00004E02246546825689D42FAD953684B6077
:102CB00099608A60516008610168491C016030BDFB
:102CC00042684A6093688B609368596091600861BC
:102CD0000168491C01607047502080F31188BFF3E0
:102CE0004F8FBFF36F8F0A494868401C4860012826
:102CF0000CD10848006810F0FF0F07D0502080F377
:102D00001188BFF34F8FBFF36F8FFEE7704700004E
:102D10005C00002004ED00E00849486828B1401E2E
:102D2000486001D180F311887047502080F31188EA
:102D3000BFF34F8FBFF36F8FFEE700005C000020F2
:102D400070B5002827D0144DA0F108046168E86828
:102D5000014207D1502080F31188BFF34F8FBFF39A
:102D60006F8FFEE722683AB1502080F31188BFF3DD
:102D70004F8FBFF36F8FFEE78143616000F078F8FB
:102D800060686968084468602046FFF799FEBDE8FE
:102D9000704000F091B970BD4400002006484FF427
:102DA0007A710068B0FBF1F14FF0E020491E4161FB
:102DB00007210161704700004000002010B50200AB
:102DC00014D00F48006B38B1502080F31188BFF346
:102DD0004F8FBFF36F8FFEE700F04AF800211046D7
:102DE000FFF71AFD00F068F9002807D105494FF0F8
:102DF00080500860BFF34F8FBFF36F8F10BD00008E
:102E00006800002004ED00E01CB515480024CDE961
:102E100000402346802213A1144800F0AFF8012897
:102E200009D0401C1AD1502080F31188BFF34F8F76
:102E3000BFF36F8FFEE7502080F31188BFF34F8FF1
:102E4000BFF36F8F06484FF0FF312C3881620121AC
:102E50004161C460BDE81C4000F040B81CBD0000EA
:102E60009400002049444C4500000000092A000855
:102E70000248016B491C0163704700006800002094
:102E80001448016B11B10121C16170470021C1617A
:102E90000169B1FA81F1C1F11F0101EB81020E4913
:102EA00051F822306BB101EB820101F108034A684D
:102EB00052684A609A4201D152684A60D168016002
:102EC0007047502080F31188BFF34F8FBFF36F8F8F
:102ED000FEE7000068000020980E00201CB519498C
:102EE00008780190FF20087008788DF800009DF8A0
:102EF0000000154A00F0500010700720906005E0B7
:102F00009DF800305B008DF80030401E9DF80030C9
:102F10001B06F5D4000200F4E06090600198087090
:102F20000A48016841F470010160016841F0704194
:102F30000160FFF733FF00205060FDF7F3F8002039
:102F40001CBD000000E400E05C00002020ED00E07B
:102F500010B5502080F31188BFF34F8FBFF36F8FF0
:102F600000F046F818B104494FF080500860002086
:102F700080F3118810BD000004ED00E02DE9FF5F33
:102F80008346DDE90E87994616468A469000FFF78C
:102F9000E1FD05001AD05420FFF7DCFD040012D03B
:102FA00025630021CDE90241CDE900874B46324639
:102FB00051465846FFF73CFD2046FFF765FC0120CF
:102FC00004B0BDE8F09F2846FFF7BAFE4FF0FF308F
:102FD000F6E700000548416919B1006B18B10020FF
:102FE00070470120704702207047000068000020F1
:102FF0002DE9F0412E4C0027206B40B1A069401C08
:10300000A061E06900B101273846BDE8F081E668BB
:10301000761CE66013D1606B006838B1502080F3F5
:103020001188BFF34F8FBFF36F8FFEE7606BA16B0B
:103030006163A063206A401C2062FFF767FDA06AFD
:10304000DFF87080864209D3606B006880B1606BE6
:10305000C068C568686886420DD2A0622068C06AF0
:1030600000EB800158F821000128CAD90127C8E7E0
:103070004FF0FF30F1E7281DFFF7EAFDA86A18B10D
:1030800005F11800FFF7E4FDE86A0121226981409B
:103090001143216100EB800108EB8100291DFFF73E
:1030A0000FFEE86A2168C96A8842CDD30127CBE7C1
:1030B00068000020980E00202DE9F0472C4D0024D8
:1030C0002746286B38B1FFF707FE286B401E2863A0
:1030D000286B40B146E0502080F31188BFF34F8F3A
:1030E000BFF36F8FFEE7A968224E0120D1B3A6F18E
:1030F000B40980463068E8B1F068C46804F118008B
:10310000FFF7A6FD201DFFF7A3FDE06A2A6908FA74
:1031100000F11143296100EB800109EB8100211DC1
:10312000FFF7CEFDE06A2968C96A8842E2D3C5F894
:103130001C80DFE70CB1FFF7E9FCAC6944B14646FF
:10314000FFF756FF00B1EE61641EF9D10020A861BF
:10315000E86938B10849012738070860BFF34F8F85
:10316000BFF36F8FFFF7D8FD3846BDE8F08700004A
:10317000680000204C0F002004ED00E00002000178
:103180000004000800100008800040000001000258
:10319000000800040008001040008000E83100082A
:1031A000E51F000800000000000000008000000093
:1031B000DC310008172300080000000000000000B8
:1031C0008000000000000000000000000102030475
:1031D0000607080900000000010203044D6F746F28
:1031E000725370656564000064656661756C745443
:1031F00061736B001432000800000020A40000007E
:1032000026260008B8320008A4000020E4120000BE
:10321000362600080000000000000000000000004A
:103220007017000000000000090009000A00FF00FC
:10323000E8037206B004580200000000000000001D
:10324000000000000000000001000000100000006D
:103250000000000000A24A0400000000000000007E
:10326000000000000000000000000000000000005E
:1032700000000000AAAAAAAA0000000000000000A6
:10328000000000000000000000000000000000003E
:10329000000000000000000000000000000000002E
:1032A000000000000000000000000000000000001E
:0832B000000000000000000016
:04000005080000ED02
:00000001FF
